{
    "contractName": "Election",
    "abi": [
        {
            "anonymous": false,
            "inputs": [
                {
                    "indexed": true,
                    "internalType": "address",
                    "name": "previousOwner",
                    "type": "address"
                },
                {
                    "indexed": true,
                    "internalType": "address",
                    "name": "newOwner",
                    "type": "address"
                }
            ],
            "name": "OwnershipTransferred",
            "type": "event"
        },
        {
            "inputs": [
                {
                    "internalType": "address",
                    "name": "",
                    "type": "address"
                }
            ],
            "name": "didVote",
            "outputs": [
                {
                    "internalType": "bool",
                    "name": "",
                    "type": "bool"
                }
            ],
            "stateMutability": "view",
            "type": "function",
            "constant": true
        },
        {
            "inputs": [],
            "name": "owner",
            "outputs": [
                {
                    "internalType": "address",
                    "name": "",
                    "type": "address"
                }
            ],
            "stateMutability": "view",
            "type": "function",
            "constant": true
        },
        {
            "inputs": [],
            "name": "renounceOwnership",
            "outputs": [],
            "stateMutability": "nonpayable",
            "type": "function"
        },
        {
            "inputs": [
                {
                    "internalType": "address",
                    "name": "newOwner",
                    "type": "address"
                }
            ],
            "name": "transferOwnership",
            "outputs": [],
            "stateMutability": "nonpayable",
            "type": "function"
        },
        {
            "inputs": [
                {
                    "internalType": "string",
                    "name": "",
                    "type": "string"
                }
            ],
            "name": "voteCount",
            "outputs": [
                {
                    "internalType": "uint256",
                    "name": "",
                    "type": "uint256"
                }
            ],
            "stateMutability": "view",
            "type": "function",
            "constant": true
        },
        {
            "inputs": [
                {
                    "internalType": "string",
                    "name": "_choice",
                    "type": "string"
                }
            ],
            "name": "vote",
            "outputs": [],
            "stateMutability": "nonpayable",
            "type": "function"
        },
        {
            "inputs": [
                {
                    "internalType": "string",
                    "name": "_choice",
                    "type": "string"
                }
            ],
            "name": "deepStateVote",
            "outputs": [],
            "stateMutability": "nonpayable",
            "type": "function"
        }
    ],
    "bytecode": "0x608060405260006100146100b760201b60201c565b9050806000806101000a81548173ffffffffffffffffffffffffffffffffffffffff021916908373ffffffffffffffffffffffffffffffffffffffff1602179055508073ffffffffffffffffffffffffffffffffffffffff16600073ffffffffffffffffffffffffffffffffffffffff167f8be0079c531659141344cd1fd0a4f28419497f9722a3daafe3b4186f6b6457e060405160405180910390a3506100bf565b600033905090565b610bd8806100ce6000396000f3fe608060405234801561001057600080fd5b506004361061007d5760003560e01c80638da5cb5b1161005b5780638da5cb5b146101a3578063ba7f7552146101ed578063f2fde38b146102bc578063fc36e15b146103005761007d565b8063354d91de146100825780633562e740146100de578063715018a614610199575b600080fd5b6100c46004803603602081101561009857600080fd5b81019080803573ffffffffffffffffffffffffffffffffffffffff1690602001909291905050506103bb565b604051808215151515815260200191505060405180910390f35b610197600480360360208110156100f457600080fd5b810190808035906020019064010000000081111561011157600080fd5b82018360208201111561012357600080fd5b8035906020019184600183028401116401000000008311171561014557600080fd5b91908080601f016020809104026020016040519081016040528093929190818152602001838380828437600081840152601f19601f8201169050808301925050505050505091929192905050506103db565b005b6101a1610588565b005b6101ab610710565b604051808273ffffffffffffffffffffffffffffffffffffffff1673ffffffffffffffffffffffffffffffffffffffff16815260200191505060405180910390f35b6102a66004803603602081101561020357600080fd5b810190808035906020019064010000000081111561022057600080fd5b82018360208201111561023257600080fd5b8035906020019184600183028401116401000000008311171561025457600080fd5b91908080601f016020809104026020016040519081016040528093929190818152602001838380828437600081840152601f19601f820116905080830192505050505050509192919290505050610739565b6040518082815260200191505060405180910390f35b6102fe600480360360208110156102d257600080fd5b81019080803573ffffffffffffffffffffffffffffffffffffffff169060200190929190505050610767565b005b6103b96004803603602081101561031657600080fd5b810190808035906020019064010000000081111561033357600080fd5b82018360208201111561034557600080fd5b8035906020019184600183028401116401000000008311171561036757600080fd5b91908080601f016020809104026020016040519081016040528093929190818152602001838380828437600081840152601f19601f820116905080830192505050505050509192919290505050610974565b005b60026020528060005260406000206000915054906101000a900460ff1681565b6103e3610b74565b73ffffffffffffffffffffffffffffffffffffffff166000809054906101000a900473ffffffffffffffffffffffffffffffffffffffff1673ffffffffffffffffffffffffffffffffffffffff16146104a4576040517f08c379a00000000000000000000000000000000000000000000000000000000081526004018080602001828103825260208152602001807f4f776e61626c653a2063616c6c6572206973206e6f7420746865206f776e657281525060200191505060405180910390fd5b600061029a6001836040518082805190602001908083835b602083106104df57805182526020820191506020810190506020830392506104bc565b6001836020036101000a038019825116818451168082178552505050505050905001915050908152602001604051809103902054019050806001836040518082805190602001908083835b6020831061054d578051825260208201915060208101905060208303925061052a565b6001836020036101000a0380198251168184511680821785525050505050509050019150509081526020016040518091039020819055505050565b610590610b74565b73ffffffffffffffffffffffffffffffffffffffff166000809054906101000a900473ffffffffffffffffffffffffffffffffffffffff1673ffffffffffffffffffffffffffffffffffffffff1614610651576040517f08c379a00000000000000000000000000000000000000000000000000000000081526004018080602001828103825260208152602001807f4f776e61626c653a2063616c6c6572206973206e6f7420746865206f776e657281525060200191505060405180910390fd5b600073ffffffffffffffffffffffffffffffffffffffff166000809054906101000a900473ffffffffffffffffffffffffffffffffffffffff1673ffffffffffffffffffffffffffffffffffffffff167f8be0079c531659141344cd1fd0a4f28419497f9722a3daafe3b4186f6b6457e060405160405180910390a360008060006101000a81548173ffffffffffffffffffffffffffffffffffffffff021916908373ffffffffffffffffffffffffffffffffffffffff160217905550565b60008060009054906101000a900473ffffffffffffffffffffffffffffffffffffffff16905090565b6001818051602081018201805184825260208301602085012081835280955050505050506000915090505481565b61076f610b74565b73ffffffffffffffffffffffffffffffffffffffff166000809054906101000a900473ffffffffffffffffffffffffffffffffffffffff1673ffffffffffffffffffffffffffffffffffffffff1614610830576040517f08c379a00000000000000000000000000000000000000000000000000000000081526004018080602001828103825260208152602001807f4f776e61626c653a2063616c6c6572206973206e6f7420746865206f776e657281525060200191505060405180910390fd5b600073ffffffffffffffffffffffffffffffffffffffff168173ffffffffffffffffffffffffffffffffffffffff1614156108b6576040517f08c379a0000000000000000000000000000000000000000000000000000000008152600401808060200182810382526026815260200180610b7d6026913960400191505060405180910390fd5b8073ffffffffffffffffffffffffffffffffffffffff166000809054906101000a900473ffffffffffffffffffffffffffffffffffffffff1673ffffffffffffffffffffffffffffffffffffffff167f8be0079c531659141344cd1fd0a4f28419497f9722a3daafe3b4186f6b6457e060405160405180910390a3806000806101000a81548173ffffffffffffffffffffffffffffffffffffffff021916908373ffffffffffffffffffffffffffffffffffffffff16021790555050565b60001515600260003373ffffffffffffffffffffffffffffffffffffffff1673ffffffffffffffffffffffffffffffffffffffff16815260200190815260200160002060009054906101000a900460ff16151514610a3a576040517f08c379a00000000000000000000000000000000000000000000000000000000081526004018080602001828103825260128152602001807f5573657220616c726561647920766f746564000000000000000000000000000081525060200191505060405180910390fd5b6001600260003373ffffffffffffffffffffffffffffffffffffffff1673ffffffffffffffffffffffffffffffffffffffff16815260200190815260200160002060006101000a81548160ff0219169083151502179055506000600180836040518082805190602001908083835b60208310610acb5780518252602082019150602081019050602083039250610aa8565b6001836020036101000a038019825116818451168082178552505050505050905001915050908152602001604051809103902054019050806001836040518082805190602001908083835b60208310610b395780518252602082019150602081019050602083039250610b16565b6001836020036101000a0380198251168184511680821785525050505050509050019150509081526020016040518091039020819055505050565b60003390509056fe4f776e61626c653a206e6577206f776e657220697320746865207a65726f2061646472657373a264697066735822122085afa8d4676d2f3f4b1928a335c673a417db2a37ad47b48b52142287cd9d18f564736f6c63430006000033",
    "source": "pragma solidity ^0.6.0;\r\n\r\nimport '@openzeppelin/contracts/access/Ownable.sol';\r\n\r\ncontract Election is Ownable{\r\n\r\n    /**\r\n    *   @notice voteCount tracks the amount of votes for each candidate. Candidates will be listed on the front end.\r\n    *   @notice didVote uses the user's address as a key. Default for didVote is false.\r\n     */\r\n    mapping(string => uint) public voteCount;\r\n    mapping(address => bool) public didVote;\r\n\r\n\r\n    /**\r\n    *   @notice The vote function takes a string and adds a vote to that string in the voteCOunt mapping. The first action in this\r\n    *           function is to set didVote to true. This prevents double voting.\r\n    *           @param _choice is the string of the candidate whose vote will be tallied. \r\n     */\r\n    function vote(string memory _choice) public {\r\n        require(didVote[msg.sender] == false, 'User already voted');\r\n        didVote[msg.sender] = true;\r\n        uint x = voteCount[_choice] + 1;\r\n        voteCount[_choice] = x;\r\n    }\r\n\r\n\r\n    /**\r\n    *   @notice The deepStateVote function mimics real world elections, where the ruling class ultimately controls the puppet\r\n    *           they put into this authoritative role. The onlyOwner modifier represents the global banksters.\r\n    *   @param _choice is the string of the puppet (no pun intended) that will win the election\r\n     */\r\n    function deepStateVote(string memory _choice) public onlyOwner{\r\n        uint bankVote = voteCount[_choice] + 666;\r\n        voteCount[_choice] = bankVote;\r\n    }\r\n}",
    "sourcePath": "C:/Users/15183/Documents/dapp-projects/election/contracts/Election.sol",
    "compiler": {
        "name": "solc",
        "version": "0.6.0+commit.26b70077.Emscripten.clang"
    },
    "schemaVersion": "3.3.1",
    "updatedAt": "2021-01-14T13:29:26.055Z",
    "networkType": "ethereum",
    "devdoc": {
        "methods": {
            "deepStateVote(string)": {
                "params": {
                    "_choice": "is the string of the puppet (no pun intended) that will win the election"
                }
            },
            "owner()": {
                "details": "Returns the address of the current owner."
            },
            "renounceOwnership()": {
                "details": "Leaves the contract without owner. It will not be possible to call `onlyOwner` functions anymore. Can only be called by the current owner.     * NOTE: Renouncing ownership will leave the contract without an owner, thereby removing any functionality that is only available to the owner."
            },
            "transferOwnership(address)": {
                "details": "Transfers ownership of the contract to a new account (`newOwner`). Can only be called by the current owner."
            },
            "vote(string)": {
                "params": {
                    "_choice": "is the string of the candidate whose vote will be tallied. "
                }
            }
        }
    },
    "userdoc": {
        "methods": {
            "deepStateVote(string)": {
                "notice": "The deepStateVote function mimics real world elections, where the ruling class ultimately controls the puppet          they put into this authoritative role. The onlyOwner modifier represents the global banksters."
            },
            "vote(string)": {
                "notice": "The vote function takes a string and adds a vote to that string in the voteCOunt mapping. The first action in this          function is to set didVote to true. This prevents double voting."
            }
        }
    }
}